:020000040800F2
:10000000880E00205502000871520008F94A0008C5
:100010006D520008A1050008316A000800000000C8
:10002000000000000000000000000000FD56000875
:10003000B10B000800000000F95600082D5D000813
:100040006F0200086F0200086F0200086F020008CC
:100050006F0200086F0200086F0200086F020008BC
:100060006F0200086F0200086F0200086F020008AC
:100070006F0200086F0200086F0200086F0200089C
:10008000B10600086F0200086F0200086F02000846
:10009000A50500086F0200086F0200086F02000843
:1000A0006F0200086F0200086F0200086F0200086C
:1000B000055E0008155E00086F0200086F02000868
:1000C0006F0200086F0200086F0200086F0200084C
:1000D0006F020008F1690008016A0008116A00084F
:1000E0006F0200086F0200086F0200086F0200082C
:1000F0006F0200086F0200086F0200086F0200081C
:100100006F0200086F0200086F0200086F0200080B
:10011000896400086F0200086F0200086F0200087F
:100120006F0200086F0200086F0200086F020008EB
:100130006F0200086F0200086F0200086F020008DB
:10014000B5050008C50500086F0200086F02000829
:100150006F0200086F0200086F020008216A0008A1
:100160006F0200086F0200086F0200086F020008AB
:100170006F0200086F0200086F0200080000000014
:100180006F0200086F02000800F002F800F052F859
:1001900014A696E8000CB244B344DA4501D100F04D
:1001A00049F8BAE80F000FA696E83000A5EB040561
:1001B00004EB0607AAEB0704A7F101074FEA1515A0
:1001C0004FEA3414A4F10104AC4201D300F032F838
:1001D00013F0010F18BFFB1A43F0010300F001F800
:1001E000DBE718478CC00000ACC00000103A24BF09
:1001F00078C878C1FAD8520724BF30C830C144BF8C
:1002000004680C6070470000704700000023002461
:1002100000250026103A28BF78C1FBD8520728BF16
:1002200030C148BF0B6070471FB50BF0D2FF1FBD38
:1002300010B510BD00F002F91146FFF7F5FF08F008
:100240004DFF00F020F903B4FFF7F2FF03BC00F00C
:1002500023F900000948804709480047FEE7FEE708
:10026000FEE7FEE7FEE7FEE7FEE7FEE7FEE7FEE766
:1002700004480549054A064B70470000F15D000837
:100280008901000888080020880E0020880A0020C4
:10029000880A002053EA020C00F069802DE9F04B37
:1002A0004FF00006002B1FBFB3FA83F503FA05F4E5
:1002B00024FA05F65E4012BF1643B2FA82F502FA3E
:1002C00005F4C5F120051EBF22FA05FC44EA0C0422
:1002D000203556EA044C4FEA144418BF641C4FF012
:1002E00000084FF00009904271EB030C39D300294C
:1002F00019BFB1FA81F701FA07F6B0FA80F700FAF0
:1003000007F6C7F120071EBF20FA07FC46EA0C06D5
:100310002037B6FBF4FCA7EB0507103F07F01F0BD7
:10032000CBF120062CFA06F60CFA0BFB44BFB346C1
:100330000026202FA4BF5E464FF0000B5BEA060CA0
:1003400008BF4FF0010B19EB0B0948EB0608ABFB9C
:10035000027C06FB02CC0BFB03CCC01B71EB0C0137
:10036000C1E70B46024641464846BDE8F08B13B54F
:10037000084318BF4FF0FF300146AFF30080BDE8DF
:100380001C40704710B5431C02E010F8011B71B10E
:100390008107FAD14FF0013202C88C1A8C4314EA5B
:1003A000C211F9D0C01A0A0603D0C01E10BDC01A6F
:1003B00010BD0A0401D0801E10BD0902FCD0401EF1
:1003C00010BD4FF0000200B5134694469646203902
:1003D00022BFA0E80C50A0E80C50B1F12001BFF4FE
:1003E000F7AF090728BFA0E80C5048BF0CC05DF864
:1003F00004EB890028BF40F8042B08BF704748BFB2
:1004000020F8022B11F0804F18BF00F8012B704725
:1004100070477047704710B500F008F8006810BDCD
:1004200010B5044600F002F8046010BD00487047A3
:100430002800002000487047280000207546FFF77C
:10044000F9FFAE4605006946534620F00700854691
:1004500018B020B5FFF70CFFBDE820404FF00006B4
:100460004FF000074FF000084FF0000BAC46ACE82F
:10047000C009ACE8C009ACE8C009ACE8C00921F08B
:1004800007018D46704710B50446AFF30080204643
:10049000BDE81040FFF7D7BE01491820ABBEFEE70C
:1004A000260002007047000082B08DED010A9DED2C
:1004B000010A9FED0D1A80EE010A9FED0C1A20EE45
:1004C000010A9FED0B1A30EE010A8DED000A9DED39
:1004D000000A40F21050C2F200000068BCEEC00AF0
:1004E00080ED0D0A02B07047000034430000FA446A
:1004F0000000FA4382B08DED010A9DED010A9FEDE7
:100500000D1A80EE010A9FED0C1A20EE010A9FEDF4
:100510000B1A30EE010A8DED000A9DED000A40F243
:100520005850C2F200000068BCEEC00A80ED0D0A0F
:1005300002B07047000034430000FA440000FA4360
:1005400080B582B040F21050C2F20000002101914B
:1005500003F016FB019940F25850C2F2000003F07C
:100560000FFB00F00FF802B080BD000080B5B1EEC7
:10057000080AFFF799FF9FED020AFFF7BBFF80BD56
:1005800000002C4380B59FED040AFFF78DFF9FED1F
:10059000030AFFF7AFFF80BD0000BE420000C84263
:1005A000FFE7FEE780B540F26040C2F2000000F0D5
:1005B000BBFD80BD80B540F28840C2F2000000F073
:1005C000B3FD80BD80B540F28840C2F2000000F06B
:1005D000ABFD80BD80B58EB001210C9100200A904A
:1005E0000B9104900590069007900990089040F2B6
:1005F0006040C2F20000009004A9019100F0B4FB39
:10060000009801F0BFF900980221029100F0D6FA9B
:1006100001990E200D90099040F28840C2F200002E
:10062000039000F0A1FB039801F0ACF90299039844
:1006300000F0C4FA0EB080BD80B584B0ADF80E00F5
:10064000ADF80C10ADF80A20ADF8083040F230419A
:10065000C2F200014FF40070086000208860C8609A
:10066000082008619DF80F0040F2C832C2F2000273
:1006700010709DF80E0050709DF80D0090709DF860
:100680000C00D0709DF80B0010719DF80A0050719D
:100690009DF8090090719DF80800D07140F260400B
:1006A000C2F2000001AB00F0B3FA04B080BD00005C
:1006B00080B540F2B040C2F2000001F05DFA80BDAA
:1006C00082B001900198007810384AF6AB21CAF642
:1006D000AA21A0FB01100009009000994CF26820AB
:1006E000C0F60000405C0199C8650098042807D353
:1006F000FFE701990868042262F30900886506E0B3
:100700000199086840F2FF3290438865FFE701983D
:10071000806D02B07047000086B0059000208DF813
:1007200013000598806A03900598806910BBFFE765
:100730000398029003281BD80299DFE801F0020D0C
:100740000218059890F82F00C00720B1FFE701209C
:100750008DF81300FFE70CE00598C06AB0F1C07F88
:1007600004D1FFE701208DF81300FFE701E000E06E
:10077000FFE745E005988069B0F5005F25D1FFE708
:100780000398019003281ED80199DFE801F00206C2
:10079000021101208DF8130016E0059890F82F0043
:1007A000C00720B1FFE701208DF81300FFE70BE041
:1007B0000598C06AB0F1C07F04D1FFE701208DF831
:1007C0001300FFE700E0FFE719E00398009003281B
:1007D00004D3FFE70098032804D00EE001208DF831
:1007E00013000BE0059890F82F00C00720B1FFE739
:1007F00001208DF81300FFE700E0FFE7FFE7FFE7C8
:100800009DF8130006B0704780B586B0059004913E
:100810000498007800F00F0005990870049800789B
:100820000009059948700498B0F8010040BA039097
:100830000499C8780979000140EA111002900498DF
:100840000179407901F00F0140EA012001900398FD
:100850009FED230ADFED230A102109F053FD0598CF
:1008600080ED010A0298BBEE0E0AF3EE0E0A0C218F
:10087000009109F047FD0099059880ED020A019862
:10088000BAEE040AF2EE040A09F03CFD059880ED88
:10089000080A04988079059908730498C079059925
:1008A0004873059890ED021A90ED050A9FED0E2A07
:1008B00021EE021A9FED0D2A20EE020A30EE010A07
:1008C00080ED070A0599C8694861059890ED010A0D
:1008D00008F0DAFE059880ED060A06B080BD00BF7C
:1008E000DB0F49C1DB0F49419A99593F9A99193E4B
:1008F00081B041F20400CEF2000000680090009840
:1009000040F2A001C2F200010968884208D2FFE764
:1009100040F2A401C2F20001086801300860FFE75C
:10092000009840F2A001C2F20001086001B07047D7
:1009300083B08DED020A41F20400CEF2000000689F
:10094000019002980090FFE741F20400CEF200000F
:1009500000680199401A00EE100AB8EE400A9DEDB9
:10096000001A40F28800C2F2000090ED002AB8EEB2
:10097000422A21EE021AB4EE410AF1EE10FA01DA2F
:10098000FFE7E1E703B0704780B584B0039041F220
:100990000400CEF2000000680290029803990968F2
:1009A000401A00EE100AB8EE400A40F28800C2F287
:1009B000000090ED001AB8EE411A80EE010A8DEDAC
:1009C000010A029803990860FFF792FF9DED010A62
:1009D00004B080BD80B582B000F06CF840F2A83061
:1009E000C2F2000090ED000AB8EE401A818800EED5
:1009F000101AB8EEC00A9FED0B2A20EE020A30EE64
:100A0000011AC08800EE100AB8EEC00A9FED062A4F
:100A100020EE020A30EE010A8DED010A9DED010A79
:100A200002B080BD6F12833ABD37863581B0009029
:100A30004EF6FC51CEF20001086840F0807008606C
:100A400041F20401CEF200010020086041F20002F0
:100A5000CEF20002116841F001011160009944F2E8
:100A60004022C0F20F024A4340F28801C2F2000164
:100A70000A600A6844F6D353C1F26203A2FB033250
:100A8000920940F28C03C2F200031A6009684DF625
:100A90008362C4F21B32A1FB0221890C40F2900256
:100AA000C2F20002116040F2A401C2F2000108602B
:100AB00001B07047B0B586B041F20400CEF200003C
:100AC00000680590FFF714FF40F2A400C2F2000096
:100AD00001680598002302934FF0FF3C1A46E1FBA2
:100AE0000C0240F29801C2F2000100914A600860D5
:100AF0000868496840F28804C2F200042268FFF7DF
:100B0000C9FB029B02468C46009940F2A800C2F243
:100B10000000C0F804C00260D1F800C04968D0F8F5
:100B200000E042682468AEFB04E502FB0452BCEB23
:100B30000E0C61EB020240F2B001C2F2000103911F
:100B4000C1F800C04A60006840F2A832C2F2000258
:100B5000049210600868496840F28C02C2F20002F8
:100B600001921268FFF796FBDDF804C0029B049A1D
:100B7000014603989180016840689288DCF800C0C3
:100B800002FB0CF28A1A60F1000040F2B801C2F2D6
:100B900000010A6048600868496840F29002C2F2A9
:100BA00000021268FFF776FB0499C88006B0B0BD5A
:100BB0007047000072B6FFE7FEE7000084B00290C5
:100BC0000191029890F820008DF803009DF8030031
:100BD000012805D0FFE79DF8030002280AD1FFE7AE
:100BE000019A0298016848691043486100208DF815
:100BF0000F0008E00299486A40F480204862012012
:100C00008DF80F00FFE79DF80F0004B0704700005B
:100C100088B00690059104920393069890F82000FE
:100C20008DF8070006980068806800900598806835
:100C300008B9FFE700E0FFE79DF80700012806D0AC
:100C4000FFE79DF80700022840F08080FFE79DF84D
:100C50000300400700280CD4FFE79DF803000007BD
:100C6000002806D4FFE79DF80300C006002864D5DD
:100C7000FFE70098C0F301600290029901208840CC
:100C8000039908600598806868B9FFE705980168CE
:100C9000C06840EA415006990968029A01EB0211C6
:100CA000C1F880010EE005994A688868C96840EA81
:100CB000C200084306990968029A01EB0211C1F8C3
:100CC0008001FFE70598006906990968029A01EB1F
:100CD0000211C1F884010598007D01280CD1FFE7BD
:100CE00006980068029900EB0111D1F8840140F4E4
:100CF0008070C1F88401FFE704984068069909688C
:100D0000029A01EB0211C1F88C010498006806995F
:100D10000968029A01EB0211C1F88801069800687F
:100D2000029900EB0111D1F8800140F00100C1F8F7
:100D3000800100208DF81F0011E00699486A40F4F8
:100D40000010486201208DF81F0008E00699486AEB
:100D500040F48020486201208DF81F00FFE79DF8D5
:100D60001F0008B07047000086B0049003910498FB
:100D700000680190049890F820008DF803009DF819
:100D80000300012806D0FFE79DF80300022840F089
:100D9000B080FFE746F20040C4F2000001900199E4
:100DA000D1F8000240F00100C1F800020199D1F829
:100DB000000220F47C50C1F800020398426A0199B5
:100DC000D1F8000240EA0220C1F80002039840690D
:100DD00000F01F01012088400290029A0199D1F889
:100DE0001C029043C1F81C020398C069F0B9FFE7E8
:100DF000029A0199D1F80C029043C1F80C02039AAF
:100E00009088D168526940EA0140019901EBC20122
:100E1000C1F84002039A10889168526940EA014083
:100E2000019901EBC201C1F84402FFE70398C069D0
:100E300001281ED1FFE7029A0199D1F80C02104354
:100E4000C1F80C02039A90881168526940EA014087
:100E5000019901EBC201C1F84002039A908991689F
:100E6000526940EA0140019901EBC201C1F8440214
:100E7000FFE70398806940B9FFE7029A0199D1F82A
:100E800004029043C1F8040207E0029A0199D1F8E4
:100E900004021043C1F80402FFE70398006940B957
:100EA000FFE7029A0199D1F814029043C1F81402A5
:100EB00007E0029A0199D1F814021043C1F8140214
:100EC000FFE70398006A012808D1FFE7029A019919
:100ED000D1F81C021043C1F81C02FFE70199D1F8B8
:100EE000000220F00100C1F8000200208DF8170078
:100EF00008E00499486A40F48020486201208DF897
:100F00001700FFE79DF8170006B0704781B000900A
:100F100001B0704786B00490039102920193049847
:100F200090F820008DF803009DF80300012806D0FA
:100F3000FFE79DF80300022840F0E880FFE70398F0
:100F400080B9FFE704980068C068800748B9FFE7E8
:100F50000499486A40F40010486201208DF8170097
:100F6000DDE00FE0049800680069800748B9FFE7FA
:100F70000499486A40F40010486201208DF8170077
:100F8000CDE0FFE704980068039900EB0110D0F86A
:100F9000B00100F00400029988600298806858B996
:100FA000FFE704980068039900EB0110D0F8B00146
:100FB000400D029908600AE004980068039900EB6C
:100FC0000110D0F8B001C00802994860FFE704980A
:100FD0000068039900EB0110D0F8B00100F00200A6
:100FE0000299C86004980068039900EB0110D0F8DA
:100FF000B40100F00F00082804D3FFE7029908208D
:1010000008610BE004980068039900EB0110D0F828
:10101000B40100F00F0002990861FFE7049800682E
:10102000039900EB0110D0F8B40180B2000A0299D4
:10103000886104980068039900EB0110D0F8B401AE
:10104000000C0299486104980068039900EB0110B4
:10105000D0F8B8010199087004980068039900EB72
:101060000110D0F8B801000A01994870049800688E
:10107000039900EB0110D0F8B801000C01998870B9
:1010800004980068039900EB0110D0F8B801000E35
:101090000199C87004980068039900EB0110D0F81A
:1010A000BC010199087104980068039900EB0110D4
:1010B000D0F8BC01000A01994871049800680399AE
:1010C00000EB0110D0F8BC01000C01998871049864
:1010D0000068039900EB0110D0F8BC01000E0199E3
:1010E000C871039838B9FFE704980168C86840F0F0
:1010F0002000C86006E004980168086940F02000FC
:101100000861FFE700208DF8170008E00499486A9D
:1011100040F48020486201208DF81700FFE79DF819
:10112000170006B07047000080B58AB00990002013
:10113000089009980068406907900998006840681D
:101140000690099800688068059009980068C06852
:101150000490099800680069039009980068806904
:1011600002909DF81C00C007002800F09480FFE763
:101170009DF81400C00758B3FFE7099801680120E3
:1011800088609DF814008007002804D5FFE70998BF
:1011900000F042FC1BE09DF814004007002805D534
:1011A000FFE7089840F4006008900FE09DF81400F5
:1011B0000007002805D5FFE7089840F48050089004
:1011C00003E0099800F024FCFFE7FFE7FFE7FFE7F3
:1011D0009DF81500C00760B3FFE7099801684FF458
:1011E000807088609DF815008007002804D5FFE70F
:1011F000099800F019FC1BE09DF815004007002835
:1012000005D5FFE7089840F4005008900FE09DF8DE
:1012100015000007002805D5FFE7089840F4804036
:10122000089003E0099800F0FBFBFFE7FFE7FFE70A
:10123000FFE79DF81600C00760B3FFE70998016853
:101240004FF4803088609DF816008007002804D590
:10125000FFE7099800F0F0FB1BE09DF8160040073F
:10126000002805D5FFE7089840F4004008900FE0FB
:101270009DF816000007002805D5FFE7089840F400
:101280008030089003E0099800F0D2FBFFE7FFE709
:10129000FFE7FFE7FFE79DF81C000007002810D5D7
:1012A000FFE79DF81000C006002809D5FFE7089861
:1012B00040F400700890099801681020C860FFE7AA
:1012C000FFE79DF81C00400700280FD5FFE79DF8B9
:1012D00010000007002808D5FFE7099801680820DA
:1012E000C860099800F0D8FAFFE7FFE79DF81C00F6
:1012F000800700280BD5FFE709980068C0688007C1
:1013000020B1FFE7099800F0CBFAFFE7FFE79DF86F
:101310001C004006002810D5FFE79DF80C00C00611
:10132000002809D5FFE7089840F4806008900998E4
:10133000016810200861FFE7FFE79DF81C008006A8
:1013400000280FD5FFE79DF80C000007002808D5FE
:10135000FFE70998016808200861099800F006FB7A
:10136000FFE7FFE79DF81C00C00600280BD5FFE74C
:10137000099800680069800720B1FFE7099800F02C
:10138000F9FAFFE7FFE79DF81E00800700280FD558
:10139000FFE79DF81800C006002808D5FFE7099868
:1013A000016810204860099800F0E8FAFFE7FFE7BD
:1013B0009DF81E00C00778B1FFE79DF818000007F0
:1013C000002808D5FFE709980168082048600998B7
:1013D00000F036FBFFE7FFE79DF81D000006002840
:1013E00040F18D80FFE79DF818004007002840F18C
:1013F0008180FFE79DF81D00C00750B1FFE79DF811
:101400000800C00728B1FFE7089840F001000890E5
:10141000FFE79DF81D00800700280BD5FFE79DF82A
:1014200008008007002805D5FFE7089840F0020073
:101430000890FFE79DF81D00400700280BD5FFE747
:101440009DF808004007002805D5FFE7089840F000
:1014500004000890FFE79DF81D000007002848D50C
:10146000FFE79DF8080010F0700F42D0FFE70298E8
:1014700000F0700001460191102814D0FFE7019898
:10148000202815D0FFE70198302816D0FFE70198F3
:10149000402817D0FFE70198502818D0FFE701989F
:1014A000602819D01DE0089840F00800089019E065
:1014B000089840F01000089014E0089840F02000D0
:1014C00008900FE0089840F0400008900AE0089863
:1014D00040F08000089005E0089840F48070089083
:1014E00000E0FFE709980168886920F070008861D2
:1014F000FFE7FFE70998016804204860FFE70898C4
:1015000048B1FFE7089A0999486A10434862099868
:10151000FFF7FCFCFFE70AB080BD000080B584B097
:101520000290029820B9FFE701208DF80F00E0E05B
:10153000029890F8200020B9FFE7029800F0DEF84A
:10154000FFE702980168086840F00100086000F0B9
:1015500089FF0190FFE7029800684068C007A8B9BA
:10156000FFE700F07FFF0199401A0B280DD3FFE73A
:101570000299486A40F4003048620299052081F8D7
:10158000200001208DF80F00B3E0E4E70298016825
:10159000086820F00200086000F064FF0190FFE797
:1015A0000298006840688007002815D5FFE700F022
:1015B00059FF0199401A0B280DD3FFE70299486A99
:1015C00040F4003048620299052081F82000012093
:1015D0008DF80F008DE0E3E70298007E012807D127
:1015E000FFE702980168086840F08000086006E0A4
:1015F00002980168086820F080000860FFE7029800
:10160000407E012807D1FFE702980168086840F092
:101610004000086006E002980168086820F0400079
:101620000860FFE70298807E012807D1FFE7029853
:101630000168086840F02000086006E00298016830
:10164000086820F020000860FFE70298C07E0128AB
:1016500007D1FFE702980168086820F010000860D1
:1016600006E002980168086840F010000860FFE793
:101670000298007F012807D1FFE7029801680868F7
:1016800040F00800086006E002980168086820F051
:1016900008000860FFE70298407F012807D1FFE7B4
:1016A00002980168086840F00400086006E00298AB
:1016B0000168086820F004000860FFE7029B1968D1
:1016C0005A689868D3F80CC040EA0C00D3F810C0F0
:1016D00040EA0C005B691843013A1043C861029963
:1016E00000204862029A012182F820108DF80F0034
:1016F000FFE79DF80F0004B080BD000080B590B0FA
:101700000F9000200E900D900C900B900A900F9867
:10171000006846F20041C4F2000188424AD1FFE766
:1017200040F21010C2F2000001680131016000684F
:10173000012812D1FFE7FFE70020099043F640009F
:10174000C4F20200016841F000710160006800F01D
:10175000007009900998FFE7FFE7FFE70020089075
:1017600043F63000C4F20200016841F0010101605B
:10177000006800F0010008900898FFE74FF4C0509F
:101780000A9002200B90002003900C9003200D90F3
:1017900009200E900020C4F202000AA900F056FCB5
:1017A000039A14200490012100F0F4FE049800F044
:1017B000E7FE6EE00F98006846F60001C4F20001F3
:1017C000884265D1FFE7FFE70020079043F640001D
:1017D000C4F20200016841F080610160006800F01D
:1017E000806007900798FFE740F21010C2F20000F7
:1017F0000168013101600068012812D1FFE7FFE7AD
:101800000020069043F64000C4F20200016841F057
:1018100000710160006800F0007006900698FFE714
:10182000FFE7FFE70020059043F63000C4F2020016
:10183000016841F002010160006800F002000590BB
:101840000598FFE74FF440500A9002200B900020CB
:1018500001900C9003200D9009200E9040F2004062
:10186000C4F202000AA900F0F1FB019A40200090A6
:10187000114600F08FFE009800F082FE019A412090
:101880000290114600F086FE029800F079FEFFE714
:10189000FFE710B080BD000081B0009001B070473C
:1018A00080B58EB00D900D9840F26041C2F20001FB
:1018B00088422ED1FFE70D98002106AA04ABFFF75E
:1018C00029FB0698A0F20120032820D8FFE70698FC
:1018D000411E40F20C10C2F200000290017000782C
:1018E00000EB400140F2D030C2F20000039000EB68
:1018F000C10004A906F06EFF02990398097801EB74
:10190000410100EBC100002106F086FF00E0FFE787
:101910002AE00D9840F28841C2F20001884222D1AB
:10192000FFE70D98002106AA04ABFFF7F3FA06982B
:101930000190112804D0FFE70198122808D010E088
:1019400040F2C400C2F2000004A9FEF75DFF09E006
:1019500040F2C400C2F20000243004A9FEF754FF94
:1019600000E0FFE7FFE7FFE70EB080BD81B0009029
:1019700001B0704781B0009001B0704781B0009015
:1019800001B0704780B584B00290029890F82000B2
:1019900001282FD1FFE70299022081F82000029848
:1019A0000168086820F00100086000F05BFD01900C
:1019B000FFE7029800684068C007A8B1FFE700F0A1
:1019C00051FD0199401A0B280DD3FFE70299486A8F
:1019D00040F4003048620299052081F8200001207F
:1019E0008DF80F000FE0E4E70299002048628DF8BF
:1019F0000F0008E00299486A40F400204862012084
:101A00008DF80F00FFE79DF80F0004B080BD0000C7
:101A100081B0009001B0704781B0009001B0704774
:101A200081B0009001B0704781B0009001B0704764
:101A300081B0009001B0704781B0009001B0704754
:101A400081B0009001B0704780B584B002900298D8
:101A5000806D019000F006FD0090029890F835002E
:101A600002280DD0FFE7029980204865FFE7029920
:101A7000002081F83400FFE701208DF80F0055E0C9
:101A800002980168086820F0160008600298016852
:101A9000486920F0800048610298006C20B9FFE797
:101AA0000298806C38B1FFE702980168086820F05E
:101AB00008000860FFE702980168086820F001004C
:101AC0000860FFE7029800680068C007C8B1FFE738
:101AD00000F0C8FC0099401A062811D3FFE70299CC
:101AE000202048650299032081F83500FFE702991C
:101AF000002081F83400FFE703208DF80F0015E087
:101B0000E0E70298C16D3F20884001998860029902
:101B1000012081F83500FFE70299002081F83400A8
:101B2000FFE7FFE700208DF80F00FFE79DF80F00AB
:101B300004B080BD82B00090009890F83500022873
:101B400007D0FFE700998020486501208DF8070045
:101B50000EE00099052081F83500009801680868BA
:101B600020F001000860FFE700208DF80700FFE784
:101B70009DF8070002B0704780B586B00590002040
:101B8000039040F21400C2F20000006848F2B51160
:101B9000C1F64E31A0FB0110800A02900598806DBD
:101BA000019001980068049004980599C96DC84097
:101BB000000700281AD5FFE705980068006840076D
:101BC000002812D5FFE705980168086820F0040096
:101BD00008600598C16D08208840019988600599C2
:101BE000486D40F001004865FFE7FFE7049805995C
:101BF000C96DC840C007A0B1FFE7059800684069FB
:101C0000000600280CD5FFE70598C16D012088402B
:101C1000019988600599486D40F002004865FFE72A
:101C2000FFE704980599C96DC8404007002814D5FE
:101C3000FFE7059800680068800700280CD5FFE7DB
:101C40000598C16D04208840019988600599486D08
:101C500040F004004865FFE7FFE704980599C96D67
:101C6000C840C006002847D5FFE70598006800680F
:101C7000000700283FD5FFE70598C16D1020884078
:101C800001998860059800680068400300281AD50B
:101C9000FFE70598006800680003002809D4FFE703
:101CA0000598006C20B1FFE70598016C8847FFE7B5
:101CB00008E00598806C20B1FFE70598816C8847A3
:101CC000FFE7FFE716E0059800680068C0050028F8
:101CD00007D4FFE705980168086820F0080008604D
:101CE000FFE70598006C20B1FFE70598016C884775
:101CF000FFE7FFE7FFE7FFE704980599C96DC840D4
:101D00008006002840F18D80FFE705980068006894
:101D1000C006002840F18480FFE70598C16D2020AF
:101D2000884001998860059890F83500052834D1DD
:101D3000FFE705980168086820F01600086005981C
:101D40000168486920F0800048610598006C20B95E
:101D5000FFE70598806C38B1FFE7059801680868CF
:101D600020F008000860FFE70598C16D3F2088401B
:101D7000019988600599012081F83500FFE70599F0
:101D8000002081F83400FFE70598006D20B1FFE7DF
:101D90000598016D8847FFE77BE0059800680068BB
:101DA000400300281AD5FFE7059800680068000383
:101DB000002809D4FFE70598406C20B1FFE705989B
:101DC000416C8847FFE708E00598C06B20B1FFE74A
:101DD0000598C16B8847FFE7FFE720E0059800689A
:101DE0000068C005002811D4FFE70598016808685D
:101DF00020F0100008600599012081F83500FFE708
:101E00000599002081F83400FFE7FFE70598C06BD3
:101E100020B1FFE70598C16B8847FFE7FFE7FFE7C1
:101E2000FFE70598406DA0B3FFE70598406DC00738
:101E300030B3FFE70599052081F835000598016862
:101E4000086820F001000860FFE703980130039064
:101E50000299884201D9FFE707E0FFE7059800688B
:101E60000068C0070028F0D1FFE70599012081F83C
:101E70003500FFE70599002081F83400FFE7FFE710
:101E80000598C06C20B1FFE70598C16C8847FFE753
:101E9000FFE706B080BD000080B586B0049000204A
:101EA000039000F0DFFA0290049820B9FFE70120C8
:101EB0008DF81700A3E00498406A08B1FFE7FFE738
:101EC0000499022081F83500FFE70499002081F889
:101ED0003400FFE704980168086820F001000860FA
:101EE000FFE7049800680068C00790B1FFE700F0C2
:101EF000B9FA0299401A06280AD3FFE7049920206C
:101F000048650499032081F835008DF8170076E0C4
:101F1000E7E70498006800680390039848F23F01DF
:101F2000CFF2100108400390049900914868D1F85D
:101F300008C0CB680A6940EA0C00184310434A699C
:101F400010438A691043CA691043096A0143039820
:101F5000084303900498406A042808D1FFE70499D5
:101F6000C86A096B0143039808430390FFE703988D
:101F70000499096808600498006840690390039810
:101F800020F0070003900498416A039808430390E7
:101F90000498406A04281AD1FFE70498816A0398DC
:101FA000084303900498C06A80B1FFE70498FEF7E5
:101FB000B3FB50B1FFE70499402048650499012024
:101FC00081F835008DF8170019E0FFE7FFE7039867
:101FD0000499096848610498FEF772FB019004981F
:101FE000C16D3F20884001998860049900204865B0
:101FF000049A012182F835108DF81700FFE79DF84B
:10200000170006B080BD000080B584B0039000F0DA
:1020100029FA0290039801900198013048B1FFE736
:1020200040F22000C2F200000178019808440190BB
:10203000FFE7FFE700F016FA0299401A019988427B
:1020400001D2FFE7F6E704B080BD00008EB00D902E
:102050000C9100200A90099008900B90FFE70B98D4
:102060000F2800F2CC81FFE70B99012088400A90ED
:102070000C9800680A990840099009980A998842C2
:1020800040F0B881FFE70C98406800F00300012899
:1020900007D0FFE70C98406800F0030002282FD11A
:1020A000FFE70D98806808900B984100032000FA24
:1020B00001F10898884308900C98C0680B99490072
:1020C00000FA01F108980843089008980D99886073
:1020D0000D98406808900B99012000FA01F10898CA
:1020E000884308900C984068C0F300100B9900FAE0
:1020F00001F108980843089008980D994860FFE797
:102100000C98406800F00300032818D0FFE70D98F2
:10211000C06808900B984100032000FA01F108986C
:10212000884308900C9880680B99490000FA01F1E7
:1021300008980843089008980D99C860FFE70C9824
:10214000406800F00300022826D1FFE70D980B99A4
:102150006FF0030202EA51010844006A08900B98EC
:1021600000F0070081000F2000FA01F10898884371
:1021700008900C9800690B9901F00701890000FA9A
:1021800001F108980843089008980D990B9B02EA02
:10219000530211440862FFE70D98006808900B98FD
:1021A0004100032000FA01F10898884308900C9838
:1021B000406800F003000B99490000FA01F108980B
:1021C0000843089008980D9908600C98807980075A
:1021D000002800F00E81FFE7FFE70020079043F69C
:1021E0004400C4F20200016841F4804101600068CB
:1021F00000F4804007900798FFE70B9820F0030059
:1022000043F60801C4F20101405808900B9800F011
:10221000030081000F2000FA01F10898884308901C
:102220000D980021C4F20201884203D1FFE700208B
:1022300006905EE00D9840F20041C4F2020188422F
:1022400003D1FFE70120059050E00D9840F6000112
:10225000C4F20201884203D1FFE70220049042E069
:102260000D9840F60041C4F20201884203D1FFE715
:102270000320039034E00D9841F20001C4F2020102
:10228000884203D1FFE70420029026E00D9841F236
:102290000041C4F20201884203D1FFE7052001900A
:1022A00018E00D9841F60001C4F20201884203D102
:1022B000FFE7062000900AE00D9941F60042C4F2C3
:1022C00002020820914208BF07200090FFE7009813
:1022D0000190FFE701980290FFE702980390FFE763
:1022E00003980490FFE704980590FFE7059806908F
:1022F000FFE70698C0B20B9901F00301890000FACC
:1023000001F108980843089008980B9921F00301FF
:1023100043F60802C4F20102885043F60840C4F2B2
:1023200001000068089009990898884308900C9863
:102330008079C006002805D5FFE709990898084369
:102340000890FFE7089843F60841C4F201010860CD
:1023500043F60C40C4F201000068089009990898FF
:10236000884308900C9880798006002805D5FFE7FF
:102370000999089808430890FFE7089843F60C412C
:10238000C4F20101086043F60440C4F20100006891
:10239000089009990898884308900C9880798007DC
:1023A000002805D5FFE70999089808430890FFE73A
:1023B000089843F60441C4F20101086043F6004066
:1023C000C4F20100006808900999089888430890B1
:1023D0000C988079C00728B1FFE70999089808434D
:1023E0000890FFE7089843F60041C4F20101086035
:1023F000FFE7FFE7FFE70B9801300B902FE60EB0E9
:102400007047000082B00190ADF802100198006999
:10241000BDF80210084204D0FFE701208DF801004A
:1024200003E000208DF80100FFE79DF8010002B0F5
:102430007047000082B00190ADF802108DF80120C5
:102440009DF8010028B1FFE7BDF8020001998861FD
:1024500005E0BDF80200000401998861FFE702B0C1
:102460007047000040F68400C2F200000068704728
:1024700040F22000C2F20000027840F68401C2F26D
:1024800000010868104408607047000080B543F6FA
:102490000041C4F20201086840F400700860086856
:1024A00040F480600860086840F480700860032091
:1024B00000F08AF80F2000F005F800F03BF800204B
:1024C00080BD000080B582B0009040F21400C2F2DE
:1024D0000000006840F22001C2F200010A784FF4C7
:1024E0007A71B1FBF2F1B0FBF1F000F0A5FD20B183
:1024F000FFE701208DF8070018E000980F280DD89D
:10250000FFE700994FF0FF30002200F043F80098F9
:1025100040F22401C2F20001086003E001208DF8BE
:10252000070003E000208DF80700FFE79DF8070093
:1025300002B080BD82B0FFE70020019043F6440066
:10254000C4F20200016841F480410160006800F4B7
:10255000804001900198FFE7FFE70020009043F6DC
:102560004000C4F20200016841F08051016000683F
:1025700000F0805000900098FFE702B07047000024
:1025800080B582B08DF807009DF9070004F05CFC6F
:1025900002B080BD80B586B08DF81700049103921B
:1025A0000020029004F068FC02909DF91700019051
:1025B00002980499039A02F05DFE0146019804F026
:1025C00063FC06B080BD000080B582B00190019828
:1025D00004F07CFC02B080BD80B584B00290019113
:1025E000029820B9FFE701208DF80F0021E1019842
:1025F00043F60041C4F20201096801F00701884274
:1026000012D9FFE7019943F60040C4F202000170BD
:10261000006800F007000199884204D0FFE701201C
:102620008DF80F0005E1FFE7029800788007002889
:102630002AD5FFE7029800784007002809D5FFE770
:1026400043F60801C4F20201086840F4E050086053
:10265000FFE7029800780007002809D5FFE743F656
:102660000801C4F20201086840F460400860FFE716
:1026700043F60801C4F20201086820F0F000029A53
:10268000926810430860FFE702980078C0070028AE
:102690006ED0FFE702984068012811D1FFE743F6AA
:1026A0000000C4F20200006800F400310020B0EB2A
:1026B000514F04D1FFE701208DF80F00B9E02CE065
:1026C00002984068022805D0FFE702984068032876
:1026D00011D1FFE743F60000C4F20200006800F0E9
:1026E00000710020B0EB516F04D1FFE701208DF89D
:1026F0000F009EE010E043F60000C4F20200006804
:1027000000F002010020B0EB510F04D1FFE70120DF
:102710008DF80F008DE0FFE7FFE743F60801C4F2F4
:102720000201086820F00300029A52681043086012
:10273000FFF798FE0090FFE743F60800C4F202009E
:10274000006800F00C0002994968B0EB810F0ED0D0
:10275000FFE7FFF787FE0099401A41F2893188426E
:1027600004D3FFE703208DF80F0062E0E4E7FFE702
:10277000019843F60041C4F20201096801F0070123
:10278000884212D2FFE7019943F60040C4F20200EA
:102790000170006800F007000199884204D0FFE74B
:1027A00001208DF80F0044E0FFE702980078400711
:1027B00000280CD5FFE743F60801C4F202010868BF
:1027C00020F4E050029AD26810430860FFE70298B4
:1027D0000078000700280DD5FFE743F60801C4F292
:1027E0000201086820F46040029A126940EAC200BF
:1027F0000860FFE700F04CF843F60801C4F202015C
:102800000968C9B20A094CF25021C0F60001895C7E
:10281000C84040F21401C2F20001086040F22400F6
:10282000C2F200000068FFF74DFE00208DF80F0097
:10283000FFE79DF80F0004B080BD000040F21400D7
:10284000C2F200000068704780B5FFF7F7FF43F65B
:102850000801C4F202010968C1F382224CF260212E
:10286000C0F60001895CC84080BD000080B5FFF75C
:10287000E5FF43F60801C4F20201096889B24A0B78
:102880004CF26021C0F60001895CC84080BD0000A8
:1028900080B586B00020059004900390029043F626
:1028A0000800C4F20200006800F00C00014601912B
:1028B00040B1FFE7019804280AD0FFE701980828F3
:1028C0000CD04FE042F20040C0F2F40002904FE022
:1028D00047F64000C0F27D10029049E043F6040044
:1028E000C4F20200016801F03F0105910068400256
:1028F000002813D5FFE743F60400C4F20200006885
:10290000C0F3881047F64001C0F27D11A0FB010121
:10291000059A0023FDF7BEFC049012E043F6040084
:10292000C4F202000068C0F3881042F20041C0F215
:10293000F401A0FB0101059A0023FDF7ABFC049014
:10294000FFE743F60400C4F20200006800F44031DF
:10295000022000EBD130039004980399B0FBF1F012
:10296000029005E042F20040C0F2F4000290FFE75E
:10297000029806B080BD000080B586B0049004982F
:1029800020B9FFE701208DF8170050E30498007884
:10299000C007002800F0A580FFE743F60800C4F256
:1029A0000200006800F00C00042813D0FFE743F693
:1029B0000800C4F20200006800F00C0008281ED1D4
:1029C000FFE743F60400C4F202000068400200285A
:1029D00015D5FFE743F60000C4F20200006800F4DA
:1029E00000310020B0EB514F08D0FFE70498406859
:1029F00020B9FFE701208DF8170018E370E0FFE72A
:102A000004984068B0F5803F09D1FFE743F6000124
:102A1000C4F20201086840F48030086020E00498A5
:102A20004068B0F5A02F0DD1FFE743F60001C4F2D6
:102A30000201086840F480200860086840F4803093
:102A400008600CE043F60001C4F20201086820F4BB
:102A500080300860086820F480200860FFE7FFE706
:102A6000FFE704984068E8B1FFE7FFF7FBFC03903D
:102A7000FFE743F60000C4F20200006800F40031F2
:102A80000020B0EB514F0CD1FFE7FFF7EBFC0399AF
:102A9000401A652804D3FFE703208DF81700C6E22B
:102AA000E7E71CE0FFF7DEFC0390FFE743F60000DA
:102AB000C4F20200006800F400310020B0EB514F76
:102AC0000CD0FFE7FFF7CEFC0399401A652804D32A
:102AD000FFE703208DF81700A9E2E7E7FFE7FFE72C
:102AE000FFE7049800788007002840F19680FFE710
:102AF00043F60800C4F20200006810F00C0F13D077
:102B0000FFE743F60800C4F20200006800F00C0082
:102B100008282CD1FFE743F60400C4F20200006845
:102B20004002002823D4FFE743F60000C4F202006D
:102B3000006800F002010020B0EB510F09D0FFE760
:102B40000498C068012804D0FFE701208DF8170021
:102B50006DE243F60001C4F20201086820F0F800BB
:102B6000049A126940EAC2000860FFE754E0049842
:102B7000C06870B3FFE70021C4F24721012008605C
:102B8000FFF770FC0390FFE743F60000C4F2020079
:102B9000006800F002010020B0EB510F0CD1FFE7FC
:102BA000FFF760FC0399401A032804D3FFE70320D2
:102BB0008DF817003BE2E7E743F60001C4F202019B
:102BC000086820F0F800049A126940EAC200086020
:102BD00021E00021C4F2472100200860FFF742FCF9
:102BE0000390FFE743F60000C4F20200006800F023
:102BF00002010020B0EB510F0CD0FFE7FFF732FCD1
:102C00000399401A032804D3FFE703208DF8170027
:102C10000DE2E7E7FFE7FFE7FFE70498007800072A
:102C200000284BD5FFE70498406918B3FFE740F64A
:102C30008061C4F2472101200860FFF713FC039074
:102C4000FFE743F67400C4F20200006800F00201DE
:102C50000020B0EB510F0CD1FFE7FFF703FC039905
:102C6000401A032804D3FFE703208DF81700DEE1A4
:102C7000E7E722E040F68061C4F2472100200860C7
:102C8000FFF7F0FB0390FFE743F67400C4F2020085
:102C9000006800F002010020B0EB510F0CD0FFE7FC
:102CA000FFF7E0FB0399401A032804D3FFE7032052
:102CB0008DF81700BBE1E7E7FFE7FFE7049800782E
:102CC0004007002840F1CE80FFE700208DF8070084
:102CD00043F64000C4F202000068C000002815D48A
:102CE000FFE7FFE70020009043F64000C4F2020037
:102CF000016841F080510160006800F08050009050
:102D00000098FFE701208DF80700FFE747F2000079
:102D1000C4F200000068C005002822D4FFE747F293
:102D20000001C4F20001086840F480700860FFF7F9
:102D300099FB0390FFE747F20000C4F2000000682F
:102D4000C00500280CD4FFE7FFF78CFB0399401A5D
:102D5000032804D3FFE703208DF8170067E1EAE7B3
:102D6000FFE7FFE704988068012809D1FFE743F6F1
:102D70007001C4F20201086840F0010008601FE021
:102D80000498806805280DD1FFE743F67001C4F26E
:102D90000201086840F004000860086840F0010083
:102DA00008600CE043F67001C4F20201086820F0EC
:102DB00001000860086820F004000860FFE7FFE7F2
:102DC000FFE704988068F8B1FFE7FFF74BFB03903B
:102DD000FFE743F67000C4F20200006800F0020151
:102DE0000020B0EB510F0ED1FFE7FFF73BFB03993B
:102DF000401A41F28931884204D3FFE703208DF85D
:102E0000170014E1E5E71EE0FFF72CFB0390FFE756
:102E100043F67000C4F20200006800F002010020D6
:102E2000B0EB510F0ED0FFE7FFF71CFB0399401AE0
:102E300041F28931884204D3FFE703208DF817005F
:102E4000F5E0E5E7FFE79DF80700012809D1FFE776
:102E500043F64001C4F20201086820F08050086087
:102E6000FFE7FFE704988069002800F0DC80FFE7B7
:102E700043F60800C4F20200006800F00C000828C5
:102E800000F08580FFE70498806902285CD1FFE7A5
:102E90006021C4F2472100200860FFF7E3FA0390A5
:102EA000FFE743F60000C4F20200006800F0007182
:102EB0000020B0EB516F0CD0FFE7FFF7D3FA039976
:102EC000401A032804D3FFE703208DF81700AEE073
:102ED000E7E70499C869D1F820C04B6A8A6A40EADA
:102EE0000C0040EA8310D2034FF6FF739A43A2F519
:102EF00080321043C96A40EA016043F60401C4F21B
:102F0000020108606021C4F2472101200860FFF738
:102F1000A9FA0390FFE743F60000C4F2020000683C
:102F200000F000710020B0EB516F0CD1FFE7FFF70C
:102F300099FA0399401A032804D3FFE703208DF878
:102F4000170074E0E7E721E06021C4F24721002088
:102F50000860FFF787FA0390FFE743F60000C4F22A
:102F60000200006800F000710020B0EB516F0CD03F
:102F7000FFE7FFF777FA0399401A032804D3FFE726
:102F800003208DF8170052E0E7E7FFE74AE00498D6
:102F90008069012804D1FFE701208DF8170046E081
:102FA00043F60400C4F202000068029004988069AD
:102FB000012831D0FFE7029800F480000499C96924
:102FC000884229D1FFE7029800F03F000499096A7E
:102FD000884221D1FFE7029847F6C0710840049962
:102FE000496AB0EB811F17D1FFE7029800F4403027
:102FF0000499896AC9034FF6FF729143A1F58031A4
:10300000884209D1FFE7029800F070600499C96A0C
:10301000B0EB016F04D0FFE701208DF8170006E048
:10302000FFE7FFE7FFE700208DF81700FFE79DF8B7
:10303000170006B080BD000080B582B001900198F5
:1030400002F04AFE02B080BD81B0009001B070472E
:1030500081B0009001B0704784B0029001910020CF
:103060000090FFE7029890F83C00012804D1FFE7A8
:1030700002208DF80F0044E00299012081F83C0005
:10308000FFE7FFE7009820F0FF000199C9680843B7
:103090000090009820F440700199896808430090DE
:1030A000009820F4806001994968084300900098D6
:1030B00020F400600199096808430090009820F40A
:1030C00080500199096908430090009820F400504D
:1030D0000199496908430090009820F480400199C3
:1030E000C969084300900098029909684864FFE79D
:1030F0000299002081F83C00FFE700208DF80F00C6
:10310000FFE79DF80F0004B07047000085B0039002
:103110000291FFE7039890F83C00012804D1FFE7F3
:1031200002208DF813007EE00399012081F83C0015
:10313000FFE7FFE70399022081F83D00039800684C
:10314000406801900398006880680090019820F022
:10315000700001900298016801980843019001985D
:10316000039909684860039800680021C4F20101CE
:1031700088423CD0FFE703980068B0F1804F36D01A
:10318000FFE70398006840F20041C4F20001884262
:103190002DD0FFE70398006840F60001C4F200015B
:1031A000884224D0FFE70398006840F60041C4F24B
:1031B000000188421BD0FFE70398006840F20041FD
:1031C000C4F20101884212D0FFE70398006844F27C
:1031D0000001C4F20101884209D0FFE703980068AA
:1031E00041F60001C4F2000188420ED1FFE70098C9
:1031F00020F08000009002984168009808430090F9
:103200000098039909688860FFE70399012081F815
:103210003D00FFE70399002081F83C00FFE7002014
:103220008DF81300FFE79DF8130005B0704700000C
:1032300080B582B00090009820B9FFE701208DF89A
:1032400007003FE0009890F83D0040B9FFE7009983
:10325000002081F83C00009800F038F8FFE7009962
:10326000022081F83D00009951F8040B02F0DAFDCC
:103270000099012081F84600FFE70099012081F8BC
:103280003E00009981F83F00009981F840000099C4
:1032900081F84100FFE7FFE70099012081F8420033
:1032A000009981F84300009981F84400009981F861
:1032B0004500FFE70099012081F83D0000208DF8CE
:1032C0000700FFE79DF8070002B080BD80B586B01B
:1032D000059005980068B0F1804F1BD1FFE7FFE72C
:1032E0000020049043F64000C4F20200016841F05F
:1032F00001010160006800F0010004900498FFE7FC
:103300001C20019001210022FFF744F90198FFF7EA
:1033100037F940E00598006840F20041C4F200012E
:1033200088421BD1FFE7FFE70020039043F64000EF
:10333000C4F20200016841F002010160006800F07F
:10334000020003900398FFE71D2000900121002256
:10335000FFF720F90098FFF713F91BE005980068C4
:1033600040F60001C4F20001884212D1FFE7FFE7F6
:103370000020029043F64000C4F20200016841F0D0
:1033800004010160006800F0040002900298FFE769
:10339000FFE7FFE7FFE706B080BD000083B00190C4
:1033A000019890F83D00012804D0FFE701208DF836
:1033B0000B006AE00199022081F83D000198016844
:1033C000C86840F00100C860019800680021C4F29C
:1033D000010188423CD0FFE701980068B0F1804FBE
:1033E00036D0FFE70198006840F20041C4F20001C6
:1033F00088422DD0FFE70198006840F60001C4F232
:103400000001884224D0FFE70198006840F600419F
:10341000C4F2000188421BD0FFE70198006840F227
:103420000041C4F20101884212D0FFE70198006810
:1034300044F20001C4F20101884209D0FFE701987B
:10344000006841F60001C4F20001884212D1FFE792
:1034500001980068806800F0070000900098062836
:1034600007D0FFE701980168086840F00100086094
:10347000FFE706E001980168086840F00100086075
:10348000FFE700208DF80B00FFE79DF80B0003B06D
:103490007047000080B586B00490039100208DF83D
:1034A0000B00FFE7049890F83C00012804D1FFE7E7
:1034B00002208DF81700ABE00499012081F83C0050
:1034C000FFE7FFE70499022081F83D0004980068B7
:1034D00080680190019820F077000190019820F415
:1034E0007F400190019804990968886003980068FA
:1034F0000090002872D0FFE7009810286ED0FFE7F8
:10350000009820286AD0FFE70098302866D0FFE7AF
:103510000098402855D0FFE70098502837D0FFE7A3
:103520000098602840D0FFE7009870280BD0FFE794
:103530000098B0F5805F05D0FFE70098B0F5005F18
:1035400016D052E055E004980068039B5A689968C9
:10355000DB6802F05BFD04980068806801900198C8
:1035600040F077000190019804990968886040E074
:1035700004980068039B5A689968DB6802F046FD6E
:1035800004980168886840F48040886031E00498BD
:103590000068039A5168D26802F024FF049800681A
:1035A000502102F04DFD24E004980068039A516810
:1035B000D26802F03FFF04980068602102F040FDED
:1035C00017E004980068039A5168D26802F00AFF75
:1035D00004980068402102F033FD0AE00498006876
:1035E0000399096802F02CFD03E001208DF80B001F
:1035F000FFE70499012081F83D00FFE704990020CE
:1036000081F83C00FFE79DF80B008DF81700FFE7FD
:103610009DF8170006B080BD81B0009001B07047E2
:1036200080B584B0039003980068C0680290039846
:103630000068006901909DF804008007002824D5E7
:10364000FFE79DF80800800700281DD5FFE70398D5
:1036500001686FF002000861039901200877039860
:1036600000688069800720B1FFE70398FFF7D4FF67
:1036700006E0039800F06EF9039800F07DFAFFE78A
:10368000039900200877FFE7FFE79DF80400400753
:10369000002825D5FFE79DF80800400700281ED523
:1036A000FFE7039801686FF00400086103990220A6
:1036B000087703980068806910F4407F04D0FFE722
:1036C0000398FFF7A9FF06E0039800F043F9039879
:1036D00000F052FAFFE7039900200877FFE7FFE7C1
:1036E0009DF804000007002824D5FFE79DF8080096
:1036F000000700281DD5FFE7039801686FF0080058
:10370000086103990420087703980068C06980075E
:1037100020B1FFE70398FFF77FFF06E0039800F072
:1037200019F9039800F028FAFFE7039900200877B9
:10373000FFE7FFE79DF80400C006002825D5FFE756
:103740009DF80800C00600281ED5FFE70398016811
:103750006FF010000861039908200877039800684B
:10376000C06910F4407F04D0FFE70398FFF754FFCF
:1037700006E0039800F0EEF8039800F0FDF9FFE78B
:10378000039900200877FFE7FFE79DF80400C007D2
:1037900078B1FFE79DF80800C00748B1FFE703983C
:1037A00001686FF001000861039800F0CFFAFFE7AD
:1037B000FFE79DF804000006002810D5FFE79DF8FC
:1037C00008000006002809D5FFE7039801686FF09C
:1037D000800008610398FFF737FCFFE7FFE79DF8DB
:1037E00004004006002810D5FFE79DF808004006B9
:1037F000002809D5FFE7039801686FF040000861D1
:10380000039800F0B7FAFFE7FFE79DF80400800691
:10381000002810D5FFE79DF808008006002809D58C
:10382000FFE7039801686FF0200008610398FFF735
:103830000FFCFFE7FFE704B080BD000080B58AB051
:103840000990002008900790069005900490099830
:1038500000680021C4F20101884223D1FFE7FFE79D
:103860000020039043F63000C4F20200016841F0EA
:1038700010010160006800F0100003900398FFE75A
:103880004FF40070049002200590002006900790ED
:103890000120089041F20000C4F2020004A9FEF7E2
:1038A000D5FB54E009980068B0F1804F22D1FFE7C2
:1038B000FFE70020029043F63000C4F202000168E6
:1038C00041F001010160006800F0010002900298DF
:1038D000FFE74FF40040049002200590002006907E
:1038E0000790012008900020C4F2020004A9FEF70E
:1038F000ADFB2BE00998006840F60001C4F200011E
:10390000884222D1FFE7FFE70020019043F6300014
:10391000C4F20200016841F002010160006800F099
:10392000020001900198FFE74FF40070049002201C
:103930000590002106910791089040F20040C4F2E2
:10394000020004A9FEF782FBFFE7FFE7FFE70AB0EA
:1039500080BD000081B0009001B0704780B586B096
:1039600004900391029200208DF80700FFE704986D
:1039700090F83C00012804D1FFE702208DF81700E1
:1039800089E00499012081F83C00FFE7FFE70298F5
:1039900000900C2800F270800099DFE801F0076DBC
:1039A0006D6D206D6D6D3A6D6D6D530004980068FE
:1039B000039902F05BFB04980168886940F00800F5
:1039C000886104980168886920F004008861039880
:1039D00002690498016888691043886150E004987E
:1039E0000068039902F0B8FB04980168886940F404
:1039F0000060886104980168886920F480608861AB
:103A00000398026904980168886940EA0220886185
:103A100036E004980068039902F018FC04980168E5
:103A2000C86940F00800C86104980168C86920F0BE
:103A30000400C8610398026904980168C8691043CA
:103A4000C8611DE004980068039902F079FC0498AD
:103A50000168C86940F40060C86104980168C869D9
:103A600020F48060C8610398026904980168C869FD
:103A700040EA0220C86103E001208DF80700FFE75B
:103A8000FFE70499002081F83C00FFE79DF807005C
:103A90008DF81700FFE79DF8170006B080BD000005
:103AA00080B582B00090009820B9FFE701208DF822
:103AB00007003FE0009890F83D0040B9FFE700990B
:103AC000002081F83C00009800F038F8FFE70099EA
:103AD000022081F83D00009951F8040B02F0A2F990
:103AE0000099012081F84600FFE70099012081F844
:103AF0003E00009981F83F00009981F8400000994C
:103B000081F84100FFE7FFE70099012081F84200BA
:103B1000009981F84300009981F84400009981F8E8
:103B20004500FFE70099012081F83D0000208DF855
:103B30000700FFE79DF8070002B080BD82B001904A
:103B4000019800680021C4F20101884212D1FFE708
:103B5000FFE70020009043F64400C4F20200016831
:103B600041F001010160006800F001000090009840
:103B7000FFE7FFE702B0704781B0009001B07047E7
:103B800080B58CB00A900991099828B9FFE70A9886
:103B900090F83E0007901CE00998042805D1FFE743
:103BA0000A9890F83F00069010E00998082805D17F
:103BB000FFE70A9890F84000059004E00A9890F812
:103BC00041000590FFE705980690FFE706980790EB
:103BD000FFE70798012804D0FFE701208DF82F00A8
:103BE000AFE0099828B9FFE70A99022081F83E0062
:103BF0001EE00998042806D1FFE70A99022081F8FF
:103C00003F00049012E00998082806D1FFE70A99BE
:103C1000022081F84000039005E00A99022081F813
:103C200041000390FFE703980490FFE70498FFE743
:103C30000A98006809990122019202F0CBF90198D3
:103C40000A9909680022C4F20102914202900CD044
:103C5000FFE70A9800684FF60041CBF6FE71084472
:103C6000B0FA80F040090290FFE70298C00738B12F
:103C7000FFE70A980168486C40F400404864FFE799
:103C80000A9800680021C4F2010188423CD0FFE795
:103C90000A980068B0F1804F36D0FFE70A980068B4
:103CA00040F20041C4F2000188422DD0FFE70A989B
:103CB000006840F60001C4F20001884224D0FFE70A
:103CC0000A98006840F60041C4F2000188421BD007
:103CD000FFE70A98006840F20041C4F201018842FF
:103CE00012D0FFE70A98006844F20001C4F2010113
:103CF000884209D0FFE70A98006841F60001C4F243
:103D00000001884212D1FFE70A980068806800F03D
:103D1000070008900898062807D0FFE70A9801686E
:103D2000086840F001000860FFE706E00A980168B3
:103D3000086840F001000860FFE700208DF82F00C0
:103D4000FFE79DF82F000CB080BD000080B582B069
:103D50000190019840F2A051C2F20001884207D1BF
:103D6000FFE740F21D00C2F2000006F06FFFFFE720
:103D700002B080BD81B0009001B0704782B0019068
:103D8000ADF8021002B0704780B584B0039003987C
:103D9000006844F20041C4F20001884236D1FFE7D6
:103DA000FFE70020029003980068006802900398E3
:103DB0000068406802900298FFE7FFE7002001904A
:103DC00003980068006801900398006840680190BB
:103DD0000198FFE7FFE70020009003980068006863
:103DE000009003980068406800900098FFE740F258
:103DF000F070C2F20000B0F88010014440F2306070
:103E0000C2F20000012200F071FCFFE704B080BDA7
:103E100080B592B0119011980068006810901198C8
:103E20000068C0680F901198006840690E900020EB
:103E30000D900C90109800F00F000D900D9888B91F
:103E4000FFE79DF84000800600280AD5FFE79DF8AF
:103E50003C008006002804D5FFE7119802F08AFB99
:103E6000EAE1FFE70D98002800F0C280FFE79DF827
:103E70003800C00738B9FFE7BDF83C0010F4907F68
:103E800000F0B680FFE79DF84000C00758B1FFE79B
:103E90009DF83D00C00730B1FFE71199486C40F034
:103EA00001004864FFE79DF84000400700280BD55B
:103EB000FFE79DF83800C00730B1FFE71199486C63
:103EC00040F002004864FFE79DF8400080070028AA
:103ED0000BD5FFE79DF83800C00730B1FFE7119917
:103EE000486C40F004004864FFE79DF8400000077C
:103EF000002811D5FFE79DF83C008006002805D476
:103F0000FFE79DF83800C00730B1FFE71199486C12
:103F100040F008004864FFE71198406C002866D024
:103F2000FFE79DF84000800600280AD5FFE79DF8CE
:103F30003C008006002804D5FFE7119802F01AFB28
:103F4000FFE7119800684069C0F380100C90119849
:103F5000406C0007002804D4FFE70C9800283ED0EE
:103F6000FFE7119802F0A8FA11980068406940062E
:103F700000282FD5FFE7FFE7FFE71198006850E81A
:103F8000050F20F040000B90FFE70B991198026895
:103F900042E805100028F0D1FFE7FFE71198C06B59
:103FA00098B1FFE71198C16B46F29940C0F6000046
:103FB00008651198C06BFDF7BDFD28B1FFE71198AA
:103FC000C06B016D8847FFE703E01198FFF7DCFE47
:103FD000FFE703E01198FFF7D7FEFFE706E011982F
:103FE000FFF7D2FE119900204864FFE7FFE723E1C5
:103FF0001198006B012840F0FF80FFE79DF840001A
:10400000C006002840F1F880FFE79DF83C00C0069C
:10401000002840F1F180FFE7FFE700200A901198A7
:10402000006800680A901198006840680A900A9831
:10403000FFE71198006840694006002840F182803F
:10404000FFE71198C06B00684068ADF82600BDF826
:104050002600002875D0FFE7BDF826001199898D4C
:1040600088426EDAFFE7BDF826001199C8851198DD
:10407000C06BC069B0F5807F58D0FFE7FFE7FFE76E
:104080001198006850E8030F20F480700890FFE753
:1040900008991198026842E803100028F0D1FFE760
:1040A000FFE7FFE7FFE71198006850E8050F20F0F1
:1040B00001000790FFE707991198026842E8051090
:1040C0000028F0D1FFE7FFE7FFE7FFE7119800685E
:1040D00050E8050F20F040000690FFE70699119880
:1040E000026842E805100028F0D1FFE7FFE71199C8
:1040F000202081F84200119900200863FFE7FFE7C4
:104100001198006850E8030F20F010000590FFE7B9
:1041100005991198026842E803100028F0D1FFE7E2
:10412000FFE71198C06BFDF78FFCFFE711990220A4
:1041300048631198818DC28D891A89B2FFF71EFEDE
:10414000FFE779E01199888DC98D401AADF812000A
:104150001198C08D00284ED0FFE7BDF8120000284E
:1041600049D0FFE7FFE7FFE71198006850E8030F29
:1041700020F490700390FFE703991198026842E8D9
:1041800003100028F0D1FFE7FFE7FFE7FFE71198F2
:10419000006850E8050F20F001000290FFE7029947
:1041A0001198026842E805100028F0D1FFE7FFE708
:1041B0001199202081F84200119900200863FFE73F
:1041C000FFE71198006850E8030F20F010000190FD
:1041D000FFE701991198026842E803100028F0D126
:1041E000FFE7FFE71199022048631198BDF812100C
:1041F000FFF7C4FDFFE71FE09DF840000006002820
:104200000AD5FFE79DF83C000006002804D5FFE72B
:10421000119802F035FB0FE09DF8400040060028A1
:104220000AD5FFE79DF83C004006002804D5FFE7CB
:10423000119802F08BF9FFE712B080BD80B582B013
:104240000090009820B9FFE701208DF8070040E0BA
:104250000098806908B1FFE700E0FFE7009890F858
:10426000410040B9FFE70099002081F84000009824
:1042700000F034F8FFE70099242081F8410000980D
:104280000168C86820F40050C860009802F028FA5D
:1042900000980168086920F490400861009801685E
:1042A000486920F02A00486100980168C86840F415
:1042B0000050C860009900204864009A202182F8CC
:1042C0004110009A82F84210009948638DF8070067
:1042D000FFE79DF8070002B080BD000080B5A4B0E4
:1042E000239000202290219020901F901E902398D0
:1042F000006844F60041C4F2000188423FD1FFE764
:10430000FFE700201D9043F64000C4F20200016860
:1043100041F400210160006800F400201D901D9808
:10432000FFE7FFE700201C9043F63000C4F20200D4
:10433000016841F004010160006800F004001C9075
:104340001C98FFE74FF440601E9002201F90002051
:104350000F902090032021900820229040F600002A
:10436000C4F202001EA9FDF771FE0F9A34201090CE
:104370000121FEF70FF91098FEF702F9B3E1239837
:10438000006845F20001C4F20001884260D1FFE7F5
:10439000FFE700201B9043F64000C4F202000168D2
:1043A00041F480110160006800F480101B901B989C
:1043B000FFE7FFE700201A9043F63000C4F2020046
:1043C000016841F004010160006800F004001A90E7
:1043D0001A98FFE7FFE70020199043F63000C4F277
:1043E0000200016841F008010160006800F0080067
:1043F00019901998FFE74FF480501E9002200A9000
:104400001F9000200B90209003200C9021900820FA
:104410000D90229040F60000C4F202001EA90E91F9
:10442000FDF714FEDDF828C00B9B0C9A0D980E9931
:104430004FF0040ECDF878E0CDF87CC020932192A7
:10444000229040F60040C4F20200FDF7FFFD49E172
:104450002398006841F20001C4F2010188423ED174
:10446000FFE7FFE70020189043F64400C4F2020083
:10447000016841F010010160006800F01000189020
:104480001898FFE7FFE70020179043F63000C4F2CA
:104490000200016841F001010160006800F00100C4
:1044A00017901798FFE74FF4C0601E9002201F90EE
:1044B00000200890209003202190072022900020C7
:1044C000C4F202001EA9FDF7C1FD089A252009903B
:1044D0000121FEF75FF80998FEF752F801E12398F1
:1044E000006844F20041C4F20001884267D1FFE74E
:1044F000FFE70020169043F64000C4F20200016876
:1045000041F400310160006800F400301690169804
:10451000FFE7FFE70020159043F63000C4F20200E9
:10452000016841F008010160006800F00800159082
:104530001598FFE760201E9002201F900020069033
:104540002090032021900720229040F60040C4F2E2
:1045500002001EA9FDF77AFD069940F2B040C2F2B2
:104560000000079046F28802C4F2020202604FF097
:10457000006242608160C1604FF48062026141610B
:104580008161C16101624162FDF786FC18B1FFE7FC
:10459000FCF710FBFFE7FFE7239840F2B041C2F2BF
:1045A0000001C16323988863FFE72620059000225D
:1045B0001146FDF7EFFF0598FDF7E2FF90E0239825
:1045C000006844F60001C4F2000188423FD1FFE7D1
:1045D000FFE70020149043F64000C4F20200016897
:1045E00041F480210160006800F480201490149848
:1045F000FFE7FFE70020139043F63000C4F202000B
:10460000016841F008010160006800F008001390A3
:104610001398FFE74FF440701E9002201F90002077
:1046200003902090032021900720229040F6004024
:10463000C4F202001EA9FDF709FD039A2720049089
:104640001146FDF7A7FF0498FDF79AFF47E023986E
:10465000006841F20041C4F2010188423ED1FFE707
:10466000FFE70020129043F64400C4F20200016804
:1046700041F020010160006800F0200012901298C3
:10468000FFE7FFE70020119043F63000C4F202007C
:10469000016841F004010160006800F0040011901D
:1046A0001198FFE7C0201E9002201F90002001906B
:1046B0002090032021900820229040F60000C4F2B0
:1046C00002001EA9FDF7C2FC019A47200290114684
:1046D000FDF760FF0298FDF753FFFFE7FFE7FFE7F5
:1046E000FFE7FFE7FFE724B080BD000080B584B09E
:1046F00002900191ADF80220029890F84200202823
:1047000017D1FFE7019820B1FFE7BDF8020020B9FB
:10471000FFE701208DF80F000FE0029900200863E9
:1047200002980199BDF8022002F078F88DF80F0088
:1047300003E002208DF80F00FFE79DF80F0004B0A2
:1047400080BD000080B586B005900598006844F6ED
:104750000041C4F20001884240F0B180FFE740F21E
:10476000B030C2F2000000788DF8130040F68000EF
:10477000C2F2000000780146039140B1FFE70398C0
:10478000012817D0FFE70398022845D08BE09DF859
:104790001300AA280DD1FFE740F2B131C2F20001A7
:1047A000AA20087040F68001C2F2000101200870C2
:1047B000FFE778E09DF81300BB2812D1FFE740F235
:1047C000B131C2F20001BB20487040F2B631C2F2F2
:1047D00000010220088040F68001C2F2000108704A
:1047E00019E09DF81300AA280DD1FFE740F2B1317E
:1047F000C2F20001AA20087040F68001C2F2000156
:104800000120087006E040F68001C2F2000100209D
:104810000870FFE7FFE746E040F2B630C2F2000062
:10482000008804280FDCFFE79DF8130040F2B63340
:10483000C2F200031A88511C198040F2B131C2F251
:10484000000188540BE040F68001C2F20001002014
:10485000087040F2B631C2F200010880FFE740F272
:10486000B630C2F20000008805281BDBFFE740F2EB
:10487000B130C2F200000079FF2807D1FFE740F213
:10488000B130C2F2000006F017F9FFE740F68001F0
:10489000C2F200010020087040F2B631C2F20001FD
:1048A0000880FFE7FFE740F20870C2F2000040F224
:1048B000B031C2F200010122FFF718FF4CE0059869
:1048C000006844F60001C4F20001884211D1FFE7FC
:1048D00040F2A230C2F200000290007804F0CEFA5A
:1048E000029940F2C060C2F200000122FFF7FEFE12
:1048F000FFE70598006844F20041C4F200018842D5
:1049000011D1FFE740F2A330C2F20000019000781D
:1049100002F092F8019940F27860C2F200000122A0
:10492000FFF7E4FEFFE70598006841F20041C4F29A
:104930000101884210D1FFE740F29870C2F20000F6
:1049400040F2B831C2F2000100910422FFF7CEFE1E
:10495000009806F01DF9FFE706B080BD80B58AB06B
:1049600008900791ADF81A2005930020029008984E
:1049700090F84100202840F08180FFE7079820B19F
:10498000FFE7BDF81A0020B9FFE701208DF82700E6
:1049900078E00899002048640899212081F84100B6
:1049A000FDF760FD0290BDF81A0008998884BDF8F3
:1049B0001A000899C88408988068B0F5805F09D10A
:1049C000FFE70898006928B9FFE7002004900798DE
:1049D000039004E00798049000200390FFE7FFE7AE
:1049E0000898C08C78B3FFE70898029B05996A463F
:1049F00011608021002201F08DFF40B1FFE708998E
:104A0000202081F8410003208DF827003AE0049827
:104A100058B9FFE7039800886FF35F200899096889
:104A2000486003980230039008E0049800780899E1
:104A300009684860049801300490FFE70899C88C21
:104A40000138C884CCE70898029B05996A46116032
:104A50004021002201F05EFF40B1FFE708992020CD
:104A600081F8410003208DF827000BE008992020F1
:104A700081F8410000208DF8270003E002208DF826
:104A80002700FFE79DF827000AB080BD81B00090A5
:104A900001B0704780B582B040F2C060C2F2000041
:104AA00040F2A231C2F2000101220192FFF71EFE84
:104AB000019A40F27860C2F2000040F2A331C2F2E3
:104AC0000001FFF713FE40F29870C2F2000040F2BE
:104AD000B831C2F200010422FFF708FE019A40F249
:104AE0000870C2F2000040F2B031C2F20001FFF7DC
:104AF000FDFD02B080BD0000FFE7FEE780B584B099
:104B000040F2C060C2F20000009040F20501C2F223
:104B100000010522019242F210730293FFF71EFF7B
:104B2000C8200390FDF770FA0098019A029B40F2AA
:104B30000A01C2F20001FFF711FF0398FDF764FAC2
:104B40000098019A029B40F20F01C2F20001FFF7A8
:104B500005FF0398FDF758FA0098019A029B40F26E
:104B60000001C2F20001FFF7F9FE0398FDF74CFACD
:104B700004B080BD80B582B040F26040C2F2000057
:104B8000009046F20041C4F200010160032141603F
:104B9000002101918160C1604FF4102202614FF445
:104BA00000124261017641768176C17601774177C4
:104BB000FCF7B4FC18B1FFE7FBF7FCFFFFE702B01E
:104BC00080BD000080B582B040F28840C2F2000093
:104BD000009046F60001C4F200010160032141602B
:104BE000002101918160C1604FF4102202614FF4F5
:104BF00000124261017641768176C1760177417774
:104C0000FCF78CFC18B1FFE7FBF7D4FFFFE702B01D
:104C100080BD000080B582B0FFE70020019043F620
:104C20003000C4F20200016841F400110160006824
:104C300000F4001001900198FFE71020009000227E
:104C40001146FDF7A7FC0098FDF79AFC02B080BD65
:104C500080B590B000200F900E900D900C900B90AE
:104C6000FFE700200A9043F63000C4F2020001681A
:104C700041F004010160006800F004000A900A9805
:104C8000FFE7FFE70020099043F63000C4F202007E
:104C9000016841F080010160006800F08000099027
:104CA0000998FFE7FFE70020089043F63000C4F2C0
:104CB0000200016841F001010160006800F001009C
:104CC00008900898FFE7FFE70020079043F63000C0
:104CD000C4F20200016841F010010160006800F0B8
:104CE000100007900798FFE7FFE70020069043F6C3
:104CF0003000C4F20200016841F002010160006866
:104D000000F0020006900698FFE7FFE700200590FC
:104D100043F63000C4F20200016841F0080101606E
:104D2000006800F0080005900598FFE740F2004099
:104D3000C4F2020003901021019100220292FDF7BB
:104D400079FB029840F22F310B910C900D9040F6B8
:104D50000000C4F202000BA90491FDF777F9029854
:104D600004994FF4F8720B920C900D900020C4F24D
:104D70000200FDF76BF9029804994FF4F8420B9288
:104D80000C900D9041F20000C4F20200FDF75EF9B4
:104D9000029804994FF47C420B920C900D9040F6CF
:104DA0000040C4F20200FDF751F9029A03980499F9
:104DB00008230B930C9202220D92FDF747F9019BF9
:104DC000029A039804990B9301230C930D920E926F
:104DD000FDF73CF910B080BD80B594B00021019181
:104DE00013911291119110910F910E910D910C91BF
:104DF0000B910A91099108910791069105910491EF
:104E0000039140F21050C2F2000002900022C4F25E
:104E100001020260A7224260816044F61F62C26004
:104E2000016141618161FEF73BFE18B1FFE7FBF7CD
:104E3000C1FEFFE700201290139040F21050C2F222
:104E4000000012A9FEF762F918B1FFE7FBF7B2FE06
:104E5000FFE760200B9000220C920D920E920F92B1
:104E60001092119240F21050C2F200000BA9FEF70E
:104E700075FD18B1FFE7FBF79DFEFFE700200390EB
:104E800004900590069007904FF4005108910A9005
:104E900040F21050C2F2000003A9FEF7DDF818B18D
:104EA000FFE7FBF787FEFFE740F21050C2F2000079
:104EB000FEF7C4FC14B080BD80B58EB00021009117
:104EC0000D910C910B910A9109910891079106910E
:104ED0000591049103910291019140F25850C2F260
:104EE00000004FF08042026053224260816044F62D
:104EF0001F62C26001618161FEF79AF918B1FFE794
:104F0000FBF758FEFFE74FF480500A9040F25850EC
:104F1000C2F200000AA9FEF7BDFA18B1FFE7FBF7DD
:104F200049FEFFE740F25850C2F20000FEF7B8FD1C
:104F300018B1FFE7FBF73EFEFFE70020089009905D
:104F400040F25850C2F2000008A9FEF7DFF818B18D
:104F5000FFE7FBF72FFEFFE760200190002202929F
:104F60000392059240F25850C2F2000001A9FEF7E8
:104F7000F5FC18B1FFE7FBF71DFEFFE740F25850C4
:104F8000C2F20000FEF75AFC0EB080BD80B588B0BA
:104F900000210191079106910591049103910291DD
:104FA00040F2A050C2F2000040F20042C4F20002FF
:104FB000026042F2CF02426081606322C2600161FE
:104FC0008161FEF735F918B1FFE7FBF7F3FDFFE765
:104FD0004FF48050049040F2A050C2F2000004A9A7
:104FE000FEF758FA18B1FFE7FBF7E4FDFFE70020F2
:104FF0000290039040F2A050C2F2000002A9FEF716
:1050000085F818B1FFE7FBF7D5FDFFE708B080BDD5
:1050100080B58EB0002100910D910C910B910A91F9
:1050200009910891079106910591049103910291CC
:10503000019140F2E850C2F2000040F60002C4F2D2
:1050400000020260A7224260816044F61F62C260D3
:1050500001618161FEF7ECF818B1FFE7FBF7AAFDEB
:10506000FFE74FF480500A9040F2E850C2F200008F
:105070000AA9FEF70FFA18B1FFE7FBF79BFDFFE760
:1050800040F2E850C2F20000FEF70AFD18B1FFE757
:10509000FBF790FDFFE700200890099040F2E850F0
:1050A000C2F2000008A9FEF731F818B1FFE7FBF7DC
:1050B00081FDFFE7602001900020029003900590A1
:1050C00040F2E850C2F2000001A90C22FEF746FCB3
:1050D00018B1FFE7FBF76EFDFFE740F2E850C2F2C0
:1050E0000000FEF7ABFB0EB080BD000080B582B0C3
:1050F00040F20870C2F20000019044F60041C4F290
:10510000000101604FF4E131416000218160C16024
:1051100001610C2242618161C161FFF78FF818B112
:10512000FFE7FBF747FDFFE702B080BD80B582B027
:1051300040F25070C2F20000019045F20001C4F24A
:10514000000101604FF4E131416000218160C160E4
:1051500001610C2242618161C161FFF76FF818B1F2
:10516000FFE7FBF727FDFFE702B080BD80B582B007
:1051700040F23060C2F20000019041F20001C4F23E
:10518000010101604FF4E131416000218160C160A3
:1051900001610C2242618161C161FFF74FF818B1D2
:1051A000FFE7FBF707FDFFE702B080BD80B582B0E7
:1051B00040F27860C2F20000019044F20041C4F273
:1051C000000101604FF4E131416000218160C16064
:1051D00001610C2242618161C161FFF72FF818B1B2
:1051E000FFE7FBF7E7FCFFE702B080BD80B582B0C8
:1051F00040F2C060C2F20000019044F60001C4F227
:10520000000101604FF4E131416000218160C16023
:1052100001610C2242618161C161FFF70FF818B191
:10522000FFE7FBF7C7FCFFE702B080BD80B582B0A7
:1052300040F29870C2F20000019041F20041C4F2C5
:10524000010101604FF4E131416000218160C160E2
:1052500001610C2242618161C161FEF7EFFF18B16B
:10526000FFE7FBF7A7FCFFE702B080BDFFE7FEE723
:10527000FFE7FEE788B0079006910592079800F0D7
:10528000070004900498C0F10700052803D3FFE746
:105290000420019004E00498C0F107000190FFE7AA
:1052A0000198039004980430062803D8FFE70020F3
:1052B000009003E0049803380090FFE70098029004
:1052C00006980399012202FA01F101390840029B74
:1052D000984005999A40013A1140084308B0704738
:1052E00080B584B002908DED010ACDED000A0298E0
:1052F00090F86C00C00758B9FFE70299012081F8C7
:105300006C0002986430FBF73FFB00200390C1E083
:105310000298007E0006002804D5FFE7029803F0FB
:10532000E5F9FFE702986430FBF72EFB029880ED69
:105330001A0A00980299086301980299086602986F
:1053400090ED0C1A90ED180A30EE410A80ED0E0A2D
:10535000029890ED051A90ED0E0AB0EEC00AB4EE78
:10536000410AF1EE10FA7CDDFFE7029890ED000AA9
:1053700090ED0E1A20EE010A80ED110A029890EDD0
:10538000010A90ED0E2A90ED1A1A20EE020A20EE84
:10539000010A80ED140A029890ED020A90ED0E2A9F
:1053A00090ED0F3A90ED1A1A32EE432A20EE020ADF
:1053B00080EE010A80ED130A0298007E4007002863
:1053C00004D5FFE7029803F0EBF9FFE70298007EAF
:1053D0008006002804D5FFE7029803F051F8FFE7A4
:1053E0000298007E8007002804D5FFE7029803F0AA
:1053F000AFF8FFE70298007E4006002804D5FFE7DB
:10540000029803F089F8FFE70298007EC00720B1F8
:10541000FFE7029803F0B2F8FFE7029890ED120A56
:1054200090ED141A30EE010A80ED120A029890ED08
:10543000110A90ED122A90ED131A30EE020A30EEA6
:10544000010A80ED150A0298007EC006002804D5E6
:10545000FFE7029803F006F9FFE7029803F01EF950
:1054600005E002990020486502990865FFE7029966
:10547000086B48630299486D88650299C86CC865D5
:105480000299886BC8630299086D08640298406DA0
:105490000390FFE79DED030A04B080BDB0B582B074
:1054A0000190009101988021FAF78BFF0199009CEF
:1054B00020686268A368D4F80CC0D4F810E065696D
:1054C0004D61C1F810E0C1F80CC08B604A60086003
:1054D000A069E269236AD4F824C0D4F828E0E46A19
:1054E000CC62C1F828E0C1F824C00B62CA618861AF
:1054F00002B0B0BD80B588B007908DED060ACDED45
:10550000050A8DED041A9DED060ADDED050A02F08F
:105510002FFD8DED030A9DED031A079890ED030A08
:1055200030EE010A80ED030A9DED030A079890ED25
:10553000041A30EE410A8DED010A07989DED033AF9
:1055400090ED001A90ED012A90ED020A90ED034AC9
:1055500022EE042A21EE031A31EE021A9DED012AF1
:1055600020EE020A30EE010A8DED020A0398079937
:1055700008619DED020A9DED041AB4EE410AF1EEB8
:1055800010FA03DBFFE704980290FFE79DED020AA3
:105590009DED041AB1EE411AB4EE410AF1EE10FA93
:1055A00007DCFFE79DED040AB1EE400A8DED020A2B
:1055B000FFE79DED020A08B080BD000040F27031A7
:1055C000C2F200010023C4F270230B600020486087
:1055D0000022C4F2A0128A60C860086140F2203143
:1055E000C2F200010022C4F2C8220A60486088604A
:1055F000C860086140F23432C2F200020021C4F2F5
:105600002021116050600021C4F22011916040F20D
:105610004832C2F2000213605060916040F25C3187
:10562000C2F200010022C4F2F0120A6048608860F1
:105630007047000087B006908DED050ACDED040A95
:105640008DED031A9DED040A9DED051A30EE410A19
:105650008DED020A9DED021A069890ED030A30EED8
:10566000010A80ED030A9DED020A069890ED041AE6
:1056700030EE410A8DED000A06989DED023A90ED5C
:10568000001A90ED012A90ED020A90ED034A22EEF5
:10569000042A21EE031A31EE021A9DED002A20EEB3
:1056A000020A30EE010A8DED010A0298069908619E
:1056B0009DED010A9DED031AB4EE410AF1EE10FAD8
:1056C00003DBFFE703980190FFE79DED010A9DEDE5
:1056D000031AB1EE411AB4EE410AF1EE10FA07DCFA
:1056E000FFE79DED030AB1EE400A8DED010AFFE7E9
:1056F0009DED010A07B07047704700007047000039
:1057000080B58CB08DED0B0ACDED0A0A09904DF2F3
:105710000A70C3F6A34008900998400800EE100AEA
:10572000B8EE400A8DED050A03F0C0FF069003F0C5
:10573000BDFF0790FFE706980799099A1144884230
:105740004AD2FFE703F0B2FF06909DED080A0698E3
:105750000799401A01EE100AB8EE412A9DED051A8C
:1057600031EE421A20EE010A10EE100A06F096FC05
:1057700041EC100B05F0D4FC51EC100B9FED180B15
:1057800053EC102B0293019205F050FF0246019852
:105790000B46029943EC102B53EC102B05F0FAFF4B
:1057A00041EC100B51EC100B05F00EFF04909DED39
:1057B0000B1A9DED0A0A30EE410A9DED042A20EEF7
:1057C000020A30EE010A8DED030A9DED030ADFEDBA
:1057D000060A02F0F1FBAEE70CB080BD00BF00BFCF
:1057E000000000000000F03F00000000000000008A
:1057F00080B58EB08DED0D0ACDED0C0A8DED0B1A36
:105800000A904DF20A70C3F6A34009900020ADF84B
:105810001A001420ADF818000A98400800EE100A8B
:10582000B8EE400A8DED050A03F040FF079003F043
:105830003DFF0890FFE7079808990A9A11448842AB
:1058400079D2FFE703F032FF07909DED090A079830
:105850000899401A01EE100AB8EE412A9DED051A8A
:1058600031EE421A20EE010A10EE100A06F016FC84
:1058700041EC100B05F054FC51EC100B9FED300B7C
:1058800053EC102B0293019205F0D0FE02460198D2
:105890000B46029943EC102B53EC102B05F07AFFCA
:1058A00041EC100B51EC100B05F08EFE04909DEDB9
:1058B0000D1A9DED0C0A30EE410A9DED042A20EEF2
:1058C000020A30EE010A8DED030A05F0D9F8B0EEB8
:1058D000401A9DED0B0A30EE410A8DED0B0A9DED4D
:1058E0000B0A9FED191AB4EE410AF1EE10FA09DD28
:1058F000FFE79DED0B0A9FED151A30EE010A8DEDC5
:105900000B0A11E09DED0B0AB5EE400AF1EE10FA1C
:1059100009DAFFE79DED0B0A9FED0B1A30EE010A45
:105920008DED0B0AFFE7FFE79DED0B0ADDED030AA6
:1059300005F02AFB7FE70EB080BD00BF00BF00BFAF
:10594000000000000000F03F0000B4430000B4C3BA
:1059500080B58CB08DED0B0ACDED0A0A09904DF2A1
:105960000A70C3F6A34008900998400800EE100A98
:10597000B8EE400A8DED050A03F098FE069003F09C
:1059800095FE0790FFE706980799099A1144884207
:1059900048D2FFE703F08AFE06909DED080A0698BC
:1059A0000799401A01EE100AB8EE412A9DED051A3A
:1059B00031EE421A20EE010A10EE100A06F06EFBDC
:1059C00041EC100B05F0ACFB51EC100B9FED160BEE
:1059D00053EC102B0293019205F028FE0246019829
:1059E0000B46029943EC102B53EC102B05F0D2FE22
:1059F00041EC100B51EC100B05F0E6FD04909DED11
:105A00000B1A9DED0A0A30EE410A9DED042A20EEA4
:105A1000020A30EE010A8DED030A9DED030A04F03F
:105A2000B7FBB0E70CB080BD000000000000F03F05
:105A300080B58CB08DED0B0ACDED0A0A09904DF2C0
:105A40000A70C3F6A34008900998400800EE100AB7
:105A5000B8EE400A8DED050A03F028FE069003F02B
:105A600025FE0790FFE706980799099A1144884296
:105A700048D2FFE703F01AFE06909DED080A06984B
:105A80000799401A01EE100AB8EE412A9DED051A59
:105A900031EE421A20EE010A10EE100A06F0FEFA6C
:105AA00041EC100B05F03CFB51EC100B9FED160B7D
:105AB00053EC102B0293019205F0B8FD02460198B9
:105AC0000B46029943EC102B53EC102B05F062FEB1
:105AD00041EC100B51EC100B05F076FD04909DEDA0
